{
  "contractName": "AnyDex",
  "abi": [
    {
      "anonymous": false,
      "inputs": [
        {
          "indexed": true,
          "internalType": "address",
          "name": "previousOwner",
          "type": "address"
        },
        {
          "indexed": true,
          "internalType": "address",
          "name": "newOwner",
          "type": "address"
        }
      ],
      "name": "OwnershipTransferred",
      "type": "event"
    },
    {
      "inputs": [],
      "name": "owner",
      "outputs": [
        {
          "internalType": "address",
          "name": "",
          "type": "address"
        }
      ],
      "stateMutability": "view",
      "type": "function"
    },
    {
      "inputs": [],
      "name": "renounceOwnership",
      "outputs": [],
      "stateMutability": "nonpayable",
      "type": "function"
    },
    {
      "inputs": [
        {
          "internalType": "address",
          "name": "newOwner",
          "type": "address"
        }
      ],
      "name": "transferOwnership",
      "outputs": [],
      "stateMutability": "nonpayable",
      "type": "function"
    },
    {
      "inputs": [
        {
          "internalType": "address",
          "name": "_router",
          "type": "address"
        }
      ],
      "name": "getisRouter",
      "outputs": [
        {
          "internalType": "bool",
          "name": "",
          "type": "bool"
        }
      ],
      "stateMutability": "view",
      "type": "function"
    },
    {
      "inputs": [
        {
          "internalType": "address",
          "name": "_router",
          "type": "address"
        },
        {
          "internalType": "address",
          "name": "_pair0",
          "type": "address"
        }
      ],
      "name": "getRouterToPairs",
      "outputs": [
        {
          "internalType": "address",
          "name": "",
          "type": "address"
        }
      ],
      "stateMutability": "view",
      "type": "function"
    },
    {
      "inputs": [
        {
          "internalType": "address",
          "name": "_factory",
          "type": "address"
        }
      ],
      "name": "addFactory",
      "outputs": [],
      "stateMutability": "nonpayable",
      "type": "function"
    },
    {
      "inputs": [
        {
          "internalType": "address",
          "name": "_router",
          "type": "address"
        }
      ],
      "name": "setRouter",
      "outputs": [],
      "stateMutability": "nonpayable",
      "type": "function"
    },
    {
      "inputs": [
        {
          "internalType": "address",
          "name": "_router",
          "type": "address"
        },
        {
          "internalType": "address",
          "name": "_pair0",
          "type": "address"
        },
        {
          "internalType": "address",
          "name": "_pair1",
          "type": "address"
        }
      ],
      "name": "setRouterToPairs",
      "outputs": [],
      "stateMutability": "nonpayable",
      "type": "function"
    },
    {
      "inputs": [
        {
          "internalType": "address",
          "name": "_router",
          "type": "address"
        }
      ],
      "name": "getRouterFactory",
      "outputs": [],
      "stateMutability": "nonpayable",
      "type": "function"
    },
    {
      "inputs": [
        {
          "internalType": "address",
          "name": "_factory",
          "type": "address"
        },
        {
          "internalType": "address",
          "name": "_router",
          "type": "address"
        }
      ],
      "name": "getFactoryPairs",
      "outputs": [],
      "stateMutability": "nonpayable",
      "type": "function"
    }
  ],
  "bytecode": "0x608060405234801561001057600080fd5b5061002d61002261003260201b60201c565b61003a60201b60201c565b6100fe565b600033905090565b60008060009054906101000a900473ffffffffffffffffffffffffffffffffffffffff169050816000806101000a81548173ffffffffffffffffffffffffffffffffffffffff021916908373ffffffffffffffffffffffffffffffffffffffff1602179055508173ffffffffffffffffffffffffffffffffffffffff168173ffffffffffffffffffffffffffffffffffffffff167f8be0079c531659141344cd1fd0a4f28419497f9722a3daafe3b4186f6b6457e060405160405180910390a35050565b6114bc8061010d6000396000f3fe608060405234801561001057600080fd5b506004361061009e5760003560e01c80638da5cb5b116100665780638da5cb5b14610145578063b4107eea14610163578063c0d786551461017f578063f1ec63e31461019b578063f2fde38b146101b75761009e565b806329ce1ec5146100a357806348672566146100bf578063715018a6146100db57806372d57d91146100e55780637af25dfb14610115575b600080fd5b6100bd60048036038101906100b89190610fcc565b6101d3565b005b6100d960048036038101906100d49190610fcc565b610252565b005b6100e3610513565b005b6100ff60048036038101906100fa9190610fcc565b61059b565b60405161010c9190611014565b60405180910390f35b61012f600480360381019061012a919061102f565b6105f1565b60405161013c919061107e565b60405180910390f35b61014d61069d565b60405161015a919061107e565b60405180910390f35b61017d60048036038101906101789190611099565b6106c6565b005b61019960048036038101906101949190610fcc565b610802565b005b6101b560048036038101906101b0919061102f565b6109c9565b005b6101d160048036038101906101cc9190610fcc565b610da5565b005b6101db610e9d565b73ffffffffffffffffffffffffffffffffffffffff166101f961069d565b73ffffffffffffffffffffffffffffffffffffffff161461024f576040517f08c379a000000000000000000000000000000000000000000000000000000000815260040161024690611149565b60405180910390fd5b50565b61025a610e9d565b73ffffffffffffffffffffffffffffffffffffffff1661027861069d565b73ffffffffffffffffffffffffffffffffffffffff16146102ce576040517f08c379a00000000000000000000000000000000000000000000000000000000081526004016102c590611149565b60405180910390fd5b60011515600960008373ffffffffffffffffffffffffffffffffffffffff1673ffffffffffffffffffffffffffffffffffffffff16815260200190815260200160002060009054906101000a900460ff16151514610361576040517f08c379a0000000000000000000000000000000000000000000000000000000008152600401610358906111b5565b60405180910390fd5b60008173ffffffffffffffffffffffffffffffffffffffff1663c45a01556040518163ffffffff1660e01b8152600401602060405180830381865afa1580156103ae573d6000803e3d6000fd5b505050506040513d601f19601f820116820180604052508101906103d291906111ea565b90506005819080600181540180825580915050600190039060005260206000200160009091909190916101000a81548173ffffffffffffffffffffffffffffffffffffffff021916908373ffffffffffffffffffffffffffffffffffffffff16021790555080600760008473ffffffffffffffffffffffffffffffffffffffff1673ffffffffffffffffffffffffffffffffffffffff16815260200190815260200160002060006101000a81548173ffffffffffffffffffffffffffffffffffffffff021916908373ffffffffffffffffffffffffffffffffffffffff16021790555060011515600860008373ffffffffffffffffffffffffffffffffffffffff1673ffffffffffffffffffffffffffffffffffffffff16815260200190815260200160002060009054906101000a9050505061050f81836109c9565b5050565b61051b610e9d565b73ffffffffffffffffffffffffffffffffffffffff1661053961069d565b73ffffffffffffffffffffffffffffffffffffffff161461058f576040517f08c379a000000000000000000000000000000000000000000000000000000000815260040161058690611149565b60405180910390fd5b6105996000610ea5565b565b6000600960008373ffffffffffffffffffffffffffffffffffffffff1673ffffffffffffffffffffffffffffffffffffffff16815260200190815260200160002060009054906101000a900460ff169050919050565b600080600a60008573ffffffffffffffffffffffffffffffffffffffff1673ffffffffffffffffffffffffffffffffffffffff16815260200190815260200160002060008473ffffffffffffffffffffffffffffffffffffffff1673ffffffffffffffffffffffffffffffffffffffff16815260200190815260200160002060009054906101000a900473ffffffffffffffffffffffffffffffffffffffff1690508091505092915050565b60008060009054906101000a900473ffffffffffffffffffffffffffffffffffffffff16905090565b6106ce610e9d565b73ffffffffffffffffffffffffffffffffffffffff166106ec61069d565b73ffffffffffffffffffffffffffffffffffffffff1614610742576040517f08c379a000000000000000000000000000000000000000000000000000000000815260040161073990611149565b60405180910390fd5b80600a60008573ffffffffffffffffffffffffffffffffffffffff1673ffffffffffffffffffffffffffffffffffffffff16815260200190815260200160002060008473ffffffffffffffffffffffffffffffffffffffff1673ffffffffffffffffffffffffffffffffffffffff16815260200190815260200160002060006101000a81548173ffffffffffffffffffffffffffffffffffffffff021916908373ffffffffffffffffffffffffffffffffffffffff160217905550505050565b61080a610e9d565b73ffffffffffffffffffffffffffffffffffffffff1661082861069d565b73ffffffffffffffffffffffffffffffffffffffff161461087e576040517f08c379a000000000000000000000000000000000000000000000000000000000815260040161087590611149565b60405180910390fd5b600960008273ffffffffffffffffffffffffffffffffffffffff1673ffffffffffffffffffffffffffffffffffffffff16815260200190815260200160002060009054906101000a900460ff161561090b576040517f08c379a000000000000000000000000000000000000000000000000000000000815260040161090290611263565b60405180910390fd5b6001600960008373ffffffffffffffffffffffffffffffffffffffff1673ffffffffffffffffffffffffffffffffffffffff16815260200190815260200160002060006101000a81548160ff0219169083151502179055506004819080600181540180825580915050600190039060005260206000200160009091909190916101000a81548173ffffffffffffffffffffffffffffffffffffffff021916908373ffffffffffffffffffffffffffffffffffffffff16021790555050565b6109d1610e9d565b73ffffffffffffffffffffffffffffffffffffffff166109ef61069d565b73ffffffffffffffffffffffffffffffffffffffff1614610a45576040517f08c379a0000000000000000000000000000000000000000000000000000000008152600401610a3c90611149565b60405180910390fd5b60011515600860008473ffffffffffffffffffffffffffffffffffffffff1673ffffffffffffffffffffffffffffffffffffffff16815260200190815260200160002060009054906101000a900460ff16151514610ad8576040517f08c379a0000000000000000000000000000000000000000000000000000000008152600401610acf906112cf565b60405180910390fd5b60008273ffffffffffffffffffffffffffffffffffffffff1663574f2ba36040518163ffffffff1660e01b8152600401602060405180830381865afa158015610b25573d6000803e3d6000fd5b505050506040513d601f19601f82011682018060405250810190610b499190611325565b905060005b81811015610d9f575b81811015610d8c5760008473ffffffffffffffffffffffffffffffffffffffff16631e3dd18b836040518263ffffffff1660e01b8152600401610b9a9190611361565b602060405180830381865afa158015610bb7573d6000803e3d6000fd5b505050506040513d601f19601f82011682018060405250810190610bdb91906111ea565b9050600081905060008173ffffffffffffffffffffffffffffffffffffffff16630dfe16816040518163ffffffff1660e01b8152600401602060405180830381865afa158015610c2f573d6000803e3d6000fd5b505050506040513d601f19601f82011682018060405250810190610c5391906111ea565b905060008273ffffffffffffffffffffffffffffffffffffffff1663d21220a76040518163ffffffff1660e01b8152600401602060405180830381865afa158015610ca2573d6000803e3d6000fd5b505050506040513d601f19601f82011682018060405250810190610cc691906111ea565b905080600a60008973ffffffffffffffffffffffffffffffffffffffff1673ffffffffffffffffffffffffffffffffffffffff16815260200190815260200160002060008473ffffffffffffffffffffffffffffffffffffffff1673ffffffffffffffffffffffffffffffffffffffff16815260200190815260200160002060006101000a81548173ffffffffffffffffffffffffffffffffffffffff021916908373ffffffffffffffffffffffffffffffffffffffff16021790555050505050610b57565b8080610d97906113ab565b915050610b4e565b50505050565b610dad610e9d565b73ffffffffffffffffffffffffffffffffffffffff16610dcb61069d565b73ffffffffffffffffffffffffffffffffffffffff1614610e21576040517f08c379a0000000000000000000000000000000000000000000000000000000008152600401610e1890611149565b60405180910390fd5b600073ffffffffffffffffffffffffffffffffffffffff168173ffffffffffffffffffffffffffffffffffffffff161415610e91576040517f08c379a0000000000000000000000000000000000000000000000000000000008152600401610e8890611466565b60405180910390fd5b610e9a81610ea5565b50565b600033905090565b60008060009054906101000a900473ffffffffffffffffffffffffffffffffffffffff169050816000806101000a81548173ffffffffffffffffffffffffffffffffffffffff021916908373ffffffffffffffffffffffffffffffffffffffff1602179055508173ffffffffffffffffffffffffffffffffffffffff168173ffffffffffffffffffffffffffffffffffffffff167f8be0079c531659141344cd1fd0a4f28419497f9722a3daafe3b4186f6b6457e060405160405180910390a35050565b600080fd5b600073ffffffffffffffffffffffffffffffffffffffff82169050919050565b6000610f9982610f6e565b9050919050565b610fa981610f8e565b8114610fb457600080fd5b50565b600081359050610fc681610fa0565b92915050565b600060208284031215610fe257610fe1610f69565b5b6000610ff084828501610fb7565b91505092915050565b60008115159050919050565b61100e81610ff9565b82525050565b60006020820190506110296000830184611005565b92915050565b6000806040838503121561104657611045610f69565b5b600061105485828601610fb7565b925050602061106585828601610fb7565b9150509250929050565b61107881610f8e565b82525050565b6000602082019050611093600083018461106f565b92915050565b6000806000606084860312156110b2576110b1610f69565b5b60006110c086828701610fb7565b93505060206110d186828701610fb7565b92505060406110e286828701610fb7565b9150509250925092565b600082825260208201905092915050565b7f4f776e61626c653a2063616c6c6572206973206e6f7420746865206f776e6572600082015250565b60006111336020836110ec565b915061113e826110fd565b602082019050919050565b6000602082019050818103600083015261116281611126565b9050919050565b7f726f75746572206e6f74206b6e6f776e00000000000000000000000000000000600082015250565b600061119f6010836110ec565b91506111aa82611169565b602082019050919050565b600060208201905081810360008301526111ce81611192565b9050919050565b6000815190506111e481610fa0565b92915050565b600060208284031215611200576111ff610f69565b5b600061120e848285016111d5565b91505092915050565b7f726f7574657220616c7265616479206b6e6f776e000000000000000000000000600082015250565b600061124d6014836110ec565b915061125882611217565b602082019050919050565b6000602082019050818103600083015261127c81611240565b9050919050565b7f666163746f7279206e6f74206b6e6f776e000000000000000000000000000000600082015250565b60006112b96011836110ec565b91506112c482611283565b602082019050919050565b600060208201905081810360008301526112e8816112ac565b9050919050565b6000819050919050565b611302816112ef565b811461130d57600080fd5b50565b60008151905061131f816112f9565b92915050565b60006020828403121561133b5761133a610f69565b5b600061134984828501611310565b91505092915050565b61135b816112ef565b82525050565b60006020820190506113766000830184611352565b92915050565b7f4e487b7100000000000000000000000000000000000000000000000000000000600052601160045260246000fd5b60006113b6826112ef565b91507fffffffffffffffffffffffffffffffffffffffffffffffffffffffffffffffff8214156113e9576113e861137c565b5b600182019050919050565b7f4f776e61626c653a206e6577206f776e657220697320746865207a65726f206160008201527f6464726573730000000000000000000000000000000000000000000000000000602082015250565b60006114506026836110ec565b915061145b826113f4565b604082019050919050565b6000602082019050818103600083015261147f81611443565b905091905056fea2646970667358221220200394f7f274dec4bf7ad974cf8ec970711382c8364d73e3b7422c729166140a64736f6c634300080a0033",
  "immutableReferences": {},
  "source": "pragma solidity ^0.8.10;\r\n\r\nimport './interfaces/IUniswapFactory.sol';\r\nimport './interfaces/IUniswapPair.sol';\r\nimport './interfaces/IUniswapRouter.sol';\r\nimport {IERC20} from \"@openzeppelin/contracts/token/ERC20/IERC20.sol\";\r\nimport {Ownable} from \"@openzeppelin/contracts/access/Ownable.sol\";\r\n\r\ncontract AnyDex is Ownable {\r\n    \r\n\r\n    IUniswapV2Factory iFactory;\r\n    IUniswapV2Pair iPair;\r\n    IUniswapV2Router02 iRouter;\r\n\r\n    address[] routers;\r\n    address[] factories;\r\n\r\n    // all known pairs\r\n    mapping(address => address) routerPairs;\r\n\r\n    mapping(address => address) routerFactory;\r\n\r\n    mapping(address => bool) isFactory;\r\n    \r\n    // is this address a router address\r\n    mapping(address => bool) isRouter;\r\n\r\n    // takes router address and maps to all known pairs for that router\r\n    mapping(address => mapping(address => address)) routerToPairs; \r\n\r\n    // getters\r\n\r\n    function getisRouter(address _router) public view returns (bool) {\r\n        return isRouter[_router];\r\n    }\r\n\r\n    function getRouterToPairs(address _router, address _pair0) public view returns(address) {\r\n        address pair1 = routerToPairs[_router][_pair0];\r\n        return  pair1;\r\n    }\r\n\r\n    // setters\r\n\r\n    function addFactory(address _factory) public onlyOwner {\r\n\r\n    }\r\n\r\n    function setRouter(address _router) public onlyOwner {\r\n        require(!isRouter[_router], \"router already known\");\r\n        isRouter[_router] = true;\r\n        routers.push(_router);\r\n    }\r\n\r\n    function setRouterToPairs(address _router, address _pair0, address _pair1) public onlyOwner {\r\n        routerToPairs[_router][_pair0] = _pair1;\r\n    }\r\n\r\n    function getRouterFactory(address _router) public onlyOwner {\r\n        require(isRouter[_router] == true, \"router not known\");\r\n        address factory = IUniswapV2Router02(_router).factory();\r\n        factories.push(factory);\r\n        routerFactory[_router] = factory;\r\n        isFactory[factory] == true;\r\n        getFactoryPairs(factory, _router);\r\n    }\r\n\r\n    function getFactoryPairs(address _factory, address _router) public onlyOwner {\r\n        require(isFactory[_factory] == true, \"factory not known\");\r\n        uint pairLen = IUniswapV2Factory(_factory).allPairsLength();\r\n        for(uint x = 0; x < pairLen; x++) {\r\n            while (x < pairLen){\r\n                address pairAddr = IUniswapV2Factory(_factory).allPairs(x);\r\n                IUniswapV2Pair pair = IUniswapV2Pair(pairAddr);\r\n                address token0 = pair.token0();\r\n                address token1 = pair.token1();\r\n\r\n                routerToPairs[_router][token0] = token1;\r\n            }\r\n        }\r\n    }\r\n\r\n}",
  "sourcePath": "C:\\Users\\kiera\\Desktop\\AnyDex\\contracts\\AnyDex.sol",
  "compiler": {
    "name": "solc",
    "version": "0.8.10+commit.fc410830.Emscripten.clang"
  },
  "schemaVersion": "3.4.3",
  "updatedAt": "2022-04-06T17:05:00.071Z",
  "devdoc": {
    "kind": "dev",
    "methods": {
      "owner()": {
        "details": "Returns the address of the current owner."
      },
      "renounceOwnership()": {
        "details": "Leaves the contract without owner. It will not be possible to call `onlyOwner` functions anymore. Can only be called by the current owner. NOTE: Renouncing ownership will leave the contract without an owner, thereby removing any functionality that is only available to the owner."
      },
      "transferOwnership(address)": {
        "details": "Transfers ownership of the contract to a new account (`newOwner`). Can only be called by the current owner."
      }
    },
    "version": 1
  },
  "userdoc": {
    "kind": "user",
    "methods": {},
    "version": 1
  }
}